:1000000000308A0019280000223084008313000881
:10001000031918280130F800F701F70B0D28F80B29
:100020000C284A30F700F70B13281628800B0A28F3
:10003000080003081F398300613083168F000F0802
:10004000FF308312A000831603170908C039890006
:1000500003131F129F1200300317880083128701B9
:100060008801890183130313201120088316870058
:10007000831207110C30970083169B019C010130FD
:100080009D008312A010200883168700831287101A
:100090000C309D000030F80006389200FA308316CC
:1000A0009200831295019B01831603170908C0393A
:1000B000890003131F129F12033003178800831255
:1000C00003131F179F1783169F1383121F140030EB
:1000D000F8001F08C33978049F000A30A2000420EA
:1000E0009F149F1871281E08A10021087F3C031847
:1000F0008E2880302102F7000310770DA10021081F
:100100009500201020088316870083120714A01181
:1001100020088316870083128711A1280310A10DE0
:100120002108FE3CA100210895002010200883161C
:10013000870083120710A0112008831687008312FE
:1001400087150430F8001F08C33978049F000A306F
:10015000A20004209F149F18AB281E08A1002108AC
:100160007F3C0318C82880302102F7000310770D68
:10017000A10021089B00201220088316870083120B
:100180000716A01220088316870083128712DB2827
:100190000310A10D2108FE3CA10021089B002012A4
:1001A00020088316870083120712A01220088316E6
:0A01B000870083128716672863009A
:04400E00C420FF3F8C
:00000001FF
;PIC16F887
;CRC=6ABD  CREATED="03-may.-20 23:45"
